{
    "abi": [
        {
            "type": "constructor",
            "inputs": [],
            "stateMutability": "nonpayable"
        },
        {
            "type": "function",
            "name": "ADMIN_ROLE",
            "inputs": [],
            "outputs": [
                {
                    "name": "",
                    "type": "bytes32",
                    "internalType": "bytes32"
                }
            ],
            "stateMutability": "view"
        },
        {
            "type": "function",
            "name": "DEFAULT_ADMIN_ROLE",
            "inputs": [],
            "outputs": [
                {
                    "name": "",
                    "type": "bytes32",
                    "internalType": "bytes32"
                }
            ],
            "stateMutability": "view"
        },
        {
            "type": "function",
            "name": "UPGRADE_INTERFACE_VERSION",
            "inputs": [],
            "outputs": [
                {
                    "name": "",
                    "type": "string",
                    "internalType": "string"
                }
            ],
            "stateMutability": "view"
        },
        {
            "type": "function",
            "name": "acceptBid",
            "inputs": [
                {
                    "name": "jobId",
                    "type": "uint256",
                    "internalType": "uint256"
                },
                {
                    "name": "provider_",
                    "type": "address",
                    "internalType": "address"
                }
            ],
            "outputs": [],
            "stateMutability": "nonpayable"
        },
        {
            "type": "function",
            "name": "claimRefund",
            "inputs": [
                {
                    "name": "jobId",
                    "type": "uint256",
                    "internalType": "uint256"
                }
            ],
            "outputs": [],
            "stateMutability": "nonpayable"
        },
        {
            "type": "function",
            "name": "complete",
            "inputs": [
                {
                    "name": "jobId",
                    "type": "uint256",
                    "internalType": "uint256"
                },
                {
                    "name": "reason",
                    "type": "bytes32",
                    "internalType": "bytes32"
                },
                {
                    "name": "optParams",
                    "type": "bytes",
                    "internalType": "bytes"
                }
            ],
            "outputs": [],
            "stateMutability": "nonpayable"
        },
        {
            "type": "function",
            "name": "createJob",
            "inputs": [
                {
                    "name": "provider",
                    "type": "address",
                    "internalType": "address"
                },
                {
                    "name": "evaluator",
                    "type": "address",
                    "internalType": "address"
                },
                {
                    "name": "expiredAt",
                    "type": "uint256",
                    "internalType": "uint256"
                },
                {
                    "name": "description",
                    "type": "string",
                    "internalType": "string"
                },
                {
                    "name": "hook",
                    "type": "address",
                    "internalType": "address"
                }
            ],
            "outputs": [
                {
                    "name": "",
                    "type": "uint256",
                    "internalType": "uint256"
                }
            ],
            "stateMutability": "nonpayable"
        },
        {
            "type": "function",
            "name": "evaluatorFeeBP",
            "inputs": [],
            "outputs": [
                {
                    "name": "",
                    "type": "uint256",
                    "internalType": "uint256"
                }
            ],
            "stateMutability": "view"
        },
        {
            "type": "function",
            "name": "fund",
            "inputs": [
                {
                    "name": "jobId",
                    "type": "uint256",
                    "internalType": "uint256"
                },
                {
                    "name": "optParams",
                    "type": "bytes",
                    "internalType": "bytes"
                }
            ],
            "outputs": [],
            "stateMutability": "nonpayable"
        },
        {
            "type": "function",
            "name": "getBids",
            "inputs": [
                {
                    "name": "jobId",
                    "type": "uint256",
                    "internalType": "uint256"
                }
            ],
            "outputs": [
                {
                    "name": "",
                    "type": "tuple[]",
                    "internalType": "struct AgenticCommerce.Bid[]",
                    "components": [
                        {
                            "name": "provider",
                            "type": "address",
                            "internalType": "address"
                        },
                        {
                            "name": "amount",
                            "type": "uint256",
                            "internalType": "uint256"
                        },
                        {
                            "name": "accepted",
                            "type": "bool",
                            "internalType": "bool"
                        }
                    ]
                }
            ],
            "stateMutability": "view"
        },
        {
            "type": "function",
            "name": "getJob",
            "inputs": [
                {
                    "name": "jobId",
                    "type": "uint256",
                    "internalType": "uint256"
                }
            ],
            "outputs": [
                {
                    "name": "",
                    "type": "tuple",
                    "internalType": "struct AgenticCommerce.Job",
                    "components": [
                        {
                            "name": "id",
                            "type": "uint256",
                            "internalType": "uint256"
                        },
                        {
                            "name": "client",
                            "type": "address",
                            "internalType": "address"
                        },
                        {
                            "name": "provider",
                            "type": "address",
                            "internalType": "address"
                        },
                        {
                            "name": "evaluator",
                            "type": "address",
                            "internalType": "address"
                        },
                        {
                            "name": "description",
                            "type": "string",
                            "internalType": "string"
                        },
                        {
                            "name": "budget",
                            "type": "uint256",
                            "internalType": "uint256"
                        },
                        {
                            "name": "expiredAt",
                            "type": "uint256",
                            "internalType": "uint256"
                        },
                        {
                            "name": "status",
                            "type": "uint8",
                            "internalType": "enum AgenticCommerce.JobStatus"
                        },
                        {
                            "name": "hook",
                            "type": "address",
                            "internalType": "address"
                        }
                    ]
                }
            ],
            "stateMutability": "view"
        },
        {
            "type": "function",
            "name": "getRoleAdmin",
            "inputs": [
                {
                    "name": "role",
                    "type": "bytes32",
                    "internalType": "bytes32"
                }
            ],
            "outputs": [
                {
                    "name": "",
                    "type": "bytes32",
                    "internalType": "bytes32"
                }
            ],
            "stateMutability": "view"
        },
        {
            "type": "function",
            "name": "grantRole",
            "inputs": [
                {
                    "name": "role",
                    "type": "bytes32",
                    "internalType": "bytes32"
                },
                {
                    "name": "account",
                    "type": "address",
                    "internalType": "address"
                }
            ],
            "outputs": [],
            "stateMutability": "nonpayable"
        },
        {
            "type": "function",
            "name": "hasRole",
            "inputs": [
                {
                    "name": "role",
                    "type": "bytes32",
                    "internalType": "bytes32"
                },
                {
                    "name": "account",
                    "type": "address",
                    "internalType": "address"
                }
            ],
            "outputs": [
                {
                    "name": "",
                    "type": "bool",
                    "internalType": "bool"
                }
            ],
            "stateMutability": "view"
        },
        {
            "type": "function",
            "name": "initialize",
            "inputs": [
                {
                    "name": "paymentToken_",
                    "type": "address",
                    "internalType": "address"
                },
                {
                    "name": "treasury_",
                    "type": "address",
                    "internalType": "address"
                }
            ],
            "outputs": [],
            "stateMutability": "nonpayable"
        },
        {
            "type": "function",
            "name": "jobBids",
            "inputs": [
                {
                    "name": "",
                    "type": "uint256",
                    "internalType": "uint256"
                },
                {
                    "name": "",
                    "type": "uint256",
                    "internalType": "uint256"
                }
            ],
            "outputs": [
                {
                    "name": "provider",
                    "type": "address",
                    "internalType": "address"
                },
                {
                    "name": "amount",
                    "type": "uint256",
                    "internalType": "uint256"
                },
                {
                    "name": "accepted",
                    "type": "bool",
                    "internalType": "bool"
                }
            ],
            "stateMutability": "view"
        },
        {
            "type": "function",
            "name": "jobCounter",
            "inputs": [],
            "outputs": [
                {
                    "name": "",
                    "type": "uint256",
                    "internalType": "uint256"
                }
            ],
            "stateMutability": "view"
        },
        {
            "type": "function",
            "name": "jobHasBudget",
            "inputs": [
                {
                    "name": "jobId",
                    "type": "uint256",
                    "internalType": "uint256"
                }
            ],
            "outputs": [
                {
                    "name": "hasBudget",
                    "type": "bool",
                    "internalType": "bool"
                }
            ],
            "stateMutability": "view"
        },
        {
            "type": "function",
            "name": "jobs",
            "inputs": [
                {
                    "name": "",
                    "type": "uint256",
                    "internalType": "uint256"
                }
            ],
            "outputs": [
                {
                    "name": "id",
                    "type": "uint256",
                    "internalType": "uint256"
                },
                {
                    "name": "client",
                    "type": "address",
                    "internalType": "address"
                },
                {
                    "name": "provider",
                    "type": "address",
                    "internalType": "address"
                },
                {
                    "name": "evaluator",
                    "type": "address",
                    "internalType": "address"
                },
                {
                    "name": "description",
                    "type": "string",
                    "internalType": "string"
                },
                {
                    "name": "budget",
                    "type": "uint256",
                    "internalType": "uint256"
                },
                {
                    "name": "expiredAt",
                    "type": "uint256",
                    "internalType": "uint256"
                },
                {
                    "name": "status",
                    "type": "uint8",
                    "internalType": "enum AgenticCommerce.JobStatus"
                },
                {
                    "name": "hook",
                    "type": "address",
                    "internalType": "address"
                }
            ],
            "stateMutability": "view"
        },
        {
            "type": "function",
            "name": "paymentToken",
            "inputs": [],
            "outputs": [
                {
                    "name": "",
                    "type": "address",
                    "internalType": "contract IERC20"
                }
            ],
            "stateMutability": "view"
        },
        {
            "type": "function",
            "name": "platformFeeBP",
            "inputs": [],
            "outputs": [
                {
                    "name": "",
                    "type": "uint256",
                    "internalType": "uint256"
                }
            ],
            "stateMutability": "view"
        },
        {
            "type": "function",
            "name": "platformTreasury",
            "inputs": [],
            "outputs": [
                {
                    "name": "",
                    "type": "address",
                    "internalType": "address"
                }
            ],
            "stateMutability": "view"
        },
        {
            "type": "function",
            "name": "proxiableUUID",
            "inputs": [],
            "outputs": [
                {
                    "name": "",
                    "type": "bytes32",
                    "internalType": "bytes32"
                }
            ],
            "stateMutability": "view"
        },
        {
            "type": "function",
            "name": "reject",
            "inputs": [
                {
                    "name": "jobId",
                    "type": "uint256",
                    "internalType": "uint256"
                },
                {
                    "name": "reason",
                    "type": "bytes32",
                    "internalType": "bytes32"
                },
                {
                    "name": "optParams",
                    "type": "bytes",
                    "internalType": "bytes"
                }
            ],
            "outputs": [],
            "stateMutability": "nonpayable"
        },
        {
            "type": "function",
            "name": "renounceRole",
            "inputs": [
                {
                    "name": "role",
                    "type": "bytes32",
                    "internalType": "bytes32"
                },
                {
                    "name": "callerConfirmation",
                    "type": "address",
                    "internalType": "address"
                }
            ],
            "outputs": [],
            "stateMutability": "nonpayable"
        },
        {
            "type": "function",
            "name": "revokeRole",
            "inputs": [
                {
                    "name": "role",
                    "type": "bytes32",
                    "internalType": "bytes32"
                },
                {
                    "name": "account",
                    "type": "address",
                    "internalType": "address"
                }
            ],
            "outputs": [],
            "stateMutability": "nonpayable"
        },
        {
            "type": "function",
            "name": "setBudget",
            "inputs": [
                {
                    "name": "jobId",
                    "type": "uint256",
                    "internalType": "uint256"
                },
                {
                    "name": "amount",
                    "type": "uint256",
                    "internalType": "uint256"
                },
                {
                    "name": "optParams",
                    "type": "bytes",
                    "internalType": "bytes"
                }
            ],
            "outputs": [],
            "stateMutability": "nonpayable"
        },
        {
            "type": "function",
            "name": "setEvaluatorFee",
            "inputs": [
                {
                    "name": "feeBP_",
                    "type": "uint256",
                    "internalType": "uint256"
                }
            ],
            "outputs": [],
            "stateMutability": "nonpayable"
        },
        {
            "type": "function",
            "name": "setHookWhitelist",
            "inputs": [
                {
                    "name": "hook",
                    "type": "address",
                    "internalType": "address"
                },
                {
                    "name": "status",
                    "type": "bool",
                    "internalType": "bool"
                }
            ],
            "outputs": [],
            "stateMutability": "nonpayable"
        },
        {
            "type": "function",
            "name": "setPlatformFee",
            "inputs": [
                {
                    "name": "feeBP_",
                    "type": "uint256",
                    "internalType": "uint256"
                },
                {
                    "name": "treasury_",
                    "type": "address",
                    "internalType": "address"
                }
            ],
            "outputs": [],
            "stateMutability": "nonpayable"
        },
        {
            "type": "function",
            "name": "setProvider",
            "inputs": [
                {
                    "name": "jobId",
                    "type": "uint256",
                    "internalType": "uint256"
                },
                {
                    "name": "provider_",
                    "type": "address",
                    "internalType": "address"
                }
            ],
            "outputs": [],
            "stateMutability": "nonpayable"
        },
        {
            "type": "function",
            "name": "submit",
            "inputs": [
                {
                    "name": "jobId",
                    "type": "uint256",
                    "internalType": "uint256"
                },
                {
                    "name": "deliverable",
                    "type": "bytes32",
                    "internalType": "bytes32"
                },
                {
                    "name": "optParams",
                    "type": "bytes",
                    "internalType": "bytes"
                }
            ],
            "outputs": [],
            "stateMutability": "nonpayable"
        },
        {
            "type": "function",
            "name": "submitBid",
            "inputs": [
                {
                    "name": "jobId",
                    "type": "uint256",
                    "internalType": "uint256"
                },
                {
                    "name": "amount",
                    "type": "uint256",
                    "internalType": "uint256"
                }
            ],
            "outputs": [],
            "stateMutability": "nonpayable"
        },
        {
            "type": "function",
            "name": "supportsInterface",
            "inputs": [
                {
                    "name": "interfaceId",
                    "type": "bytes4",
                    "internalType": "bytes4"
                }
            ],
            "outputs": [
                {
                    "name": "",
                    "type": "bool",
                    "internalType": "bool"
                }
            ],
            "stateMutability": "view"
        },
        {
            "type": "function",
            "name": "upgradeToAndCall",
            "inputs": [
                {
                    "name": "newImplementation",
                    "type": "address",
                    "internalType": "address"
                },
                {
                    "name": "data",
                    "type": "bytes",
                    "internalType": "bytes"
                }
            ],
            "outputs": [],
            "stateMutability": "payable"
        },
        {
            "type": "function",
            "name": "whitelistedHooks",
            "inputs": [
                {
                    "name": "",
                    "type": "address",
                    "internalType": "address"
                }
            ],
            "outputs": [
                {
                    "name": "",
                    "type": "bool",
                    "internalType": "bool"
                }
            ],
            "stateMutability": "view"
        },
        {
            "type": "event",
            "name": "BidAccepted",
            "inputs": [
                {
                    "name": "jobId",
                    "type": "uint256",
                    "indexed": true,
                    "internalType": "uint256"
                },
                {
                    "name": "provider",
                    "type": "address",
                    "indexed": true,
                    "internalType": "address"
                },
                {
                    "name": "amount",
                    "type": "uint256",
                    "indexed": false,
                    "internalType": "uint256"
                }
            ],
            "anonymous": false
        },
        {
            "type": "event",
            "name": "BidSubmitted",
            "inputs": [
                {
                    "name": "jobId",
                    "type": "uint256",
                    "indexed": true,
                    "internalType": "uint256"
                },
                {
                    "name": "provider",
                    "type": "address",
                    "indexed": true,
                    "internalType": "address"
                },
                {
                    "name": "amount",
                    "type": "uint256",
                    "indexed": false,
                    "internalType": "uint256"
                }
            ],
            "anonymous": false
        },
        {
            "type": "event",
            "name": "BudgetSet",
            "inputs": [
                {
                    "name": "jobId",
                    "type": "uint256",
                    "indexed": true,
                    "internalType": "uint256"
                },
                {
                    "name": "amount",
                    "type": "uint256",
                    "indexed": false,
                    "internalType": "uint256"
                }
            ],
            "anonymous": false
        },
        {
            "type": "event",
            "name": "EvaluatorFeePaid",
            "inputs": [
                {
                    "name": "jobId",
                    "type": "uint256",
                    "indexed": true,
                    "internalType": "uint256"
                },
                {
                    "name": "evaluator",
                    "type": "address",
                    "indexed": true,
                    "internalType": "address"
                },
                {
                    "name": "amount",
                    "type": "uint256",
                    "indexed": false,
                    "internalType": "uint256"
                }
            ],
            "anonymous": false
        },
        {
            "type": "event",
            "name": "HookWhitelistUpdated",
            "inputs": [
                {
                    "name": "hook",
                    "type": "address",
                    "indexed": true,
                    "internalType": "address"
                },
                {
                    "name": "status",
                    "type": "bool",
                    "indexed": false,
                    "internalType": "bool"
                }
            ],
            "anonymous": false
        },
        {
            "type": "event",
            "name": "Initialized",
            "inputs": [
                {
                    "name": "version",
                    "type": "uint64",
                    "indexed": false,
                    "internalType": "uint64"
                }
            ],
            "anonymous": false
        },
        {
            "type": "event",
            "name": "JobCompleted",
            "inputs": [
                {
                    "name": "jobId",
                    "type": "uint256",
                    "indexed": true,
                    "internalType": "uint256"
                },
                {
                    "name": "evaluator",
                    "type": "address",
                    "indexed": true,
                    "internalType": "address"
                },
                {
                    "name": "reason",
                    "type": "bytes32",
                    "indexed": false,
                    "internalType": "bytes32"
                }
            ],
            "anonymous": false
        },
        {
            "type": "event",
            "name": "JobCreated",
            "inputs": [
                {
                    "name": "jobId",
                    "type": "uint256",
                    "indexed": true,
                    "internalType": "uint256"
                },
                {
                    "name": "client",
                    "type": "address",
                    "indexed": true,
                    "internalType": "address"
                },
                {
                    "name": "provider",
                    "type": "address",
                    "indexed": true,
                    "internalType": "address"
                },
                {
                    "name": "evaluator",
                    "type": "address",
                    "indexed": false,
                    "internalType": "address"
                },
                {
                    "name": "expiredAt",
                    "type": "uint256",
                    "indexed": false,
                    "internalType": "uint256"
                },
                {
                    "name": "hook",
                    "type": "address",
                    "indexed": false,
                    "internalType": "address"
                }
            ],
            "anonymous": false
        },
        {
            "type": "event",
            "name": "JobExpired",
            "inputs": [
                {
                    "name": "jobId",
                    "type": "uint256",
                    "indexed": true,
                    "internalType": "uint256"
                }
            ],
            "anonymous": false
        },
        {
            "type": "event",
            "name": "JobFunded",
            "inputs": [
                {
                    "name": "jobId",
                    "type": "uint256",
                    "indexed": true,
                    "internalType": "uint256"
                },
                {
                    "name": "client",
                    "type": "address",
                    "indexed": true,
                    "internalType": "address"
                },
                {
                    "name": "amount",
                    "type": "uint256",
                    "indexed": false,
                    "internalType": "uint256"
                }
            ],
            "anonymous": false
        },
        {
            "type": "event",
            "name": "JobRejected",
            "inputs": [
                {
                    "name": "jobId",
                    "type": "uint256",
                    "indexed": true,
                    "internalType": "uint256"
                },
                {
                    "name": "rejector",
                    "type": "address",
                    "indexed": true,
                    "internalType": "address"
                },
                {
                    "name": "reason",
                    "type": "bytes32",
                    "indexed": false,
                    "internalType": "bytes32"
                }
            ],
            "anonymous": false
        },
        {
            "type": "event",
            "name": "JobSubmitted",
            "inputs": [
                {
                    "name": "jobId",
                    "type": "uint256",
                    "indexed": true,
                    "internalType": "uint256"
                },
                {
                    "name": "provider",
                    "type": "address",
                    "indexed": true,
                    "internalType": "address"
                },
                {
                    "name": "deliverable",
                    "type": "bytes32",
                    "indexed": false,
                    "internalType": "bytes32"
                }
            ],
            "anonymous": false
        },
        {
            "type": "event",
            "name": "PaymentReleased",
            "inputs": [
                {
                    "name": "jobId",
                    "type": "uint256",
                    "indexed": true,
                    "internalType": "uint256"
                },
                {
                    "name": "provider",
                    "type": "address",
                    "indexed": true,
                    "internalType": "address"
                },
                {
                    "name": "amount",
                    "type": "uint256",
                    "indexed": false,
                    "internalType": "uint256"
                }
            ],
            "anonymous": false
        },
        {
            "type": "event",
            "name": "ProviderSet",
            "inputs": [
                {
                    "name": "jobId",
                    "type": "uint256",
                    "indexed": true,
                    "internalType": "uint256"
                },
                {
                    "name": "provider",
                    "type": "address",
                    "indexed": true,
                    "internalType": "address"
                }
            ],
            "anonymous": false
        },
        {
            "type": "event",
            "name": "Refunded",
            "inputs": [
                {
                    "name": "jobId",
                    "type": "uint256",
                    "indexed": true,
                    "internalType": "uint256"
                },
                {
                    "name": "client",
                    "type": "address",
                    "indexed": true,
                    "internalType": "address"
                },
                {
                    "name": "amount",
                    "type": "uint256",
                    "indexed": false,
                    "internalType": "uint256"
                }
            ],
            "anonymous": false
        },
        {
            "type": "event",
            "name": "RoleAdminChanged",
            "inputs": [
                {
                    "name": "role",
                    "type": "bytes32",
                    "indexed": true,
                    "internalType": "bytes32"
                },
                {
                    "name": "previousAdminRole",
                    "type": "bytes32",
                    "indexed": true,
                    "internalType": "bytes32"
                },
                {
                    "name": "newAdminRole",
                    "type": "bytes32",
                    "indexed": true,
                    "internalType": "bytes32"
                }
            ],
            "anonymous": false
        },
        {
            "type": "event",
            "name": "RoleGranted",
            "inputs": [
                {
                    "name": "role",
                    "type": "bytes32",
                    "indexed": true,
                    "internalType": "bytes32"
                },
                {
                    "name": "account",
                    "type": "address",
                    "indexed": true,
                    "internalType": "address"
                },
                {
                    "name": "sender",
                    "type": "address",
                    "indexed": true,
                    "internalType": "address"
                }
            ],
            "anonymous": false
        },
        {
            "type": "event",
            "name": "RoleRevoked",
            "inputs": [
                {
                    "name": "role",
                    "type": "bytes32",
                    "indexed": true,
                    "internalType": "bytes32"
                },
                {
                    "name": "account",
                    "type": "address",
                    "indexed": true,
                    "internalType": "address"
                },
                {
                    "name": "sender",
                    "type": "address",
                    "indexed": true,
                    "internalType": "address"
                }
            ],
            "anonymous": false
        },
        {
            "type": "event",
            "name": "Upgraded",
            "inputs": [
                {
                    "name": "implementation",
                    "type": "address",
                    "indexed": true,
                    "internalType": "address"
                }
            ],
            "anonymous": false
        },
        {
            "type": "error",
            "name": "AccessControlBadConfirmation",
            "inputs": []
        },
        {
            "type": "error",
            "name": "AccessControlUnauthorizedAccount",
            "inputs": [
                {
                    "name": "account",
                    "type": "address",
                    "internalType": "address"
                },
                {
                    "name": "neededRole",
                    "type": "bytes32",
                    "internalType": "bytes32"
                }
            ]
        },
        {
            "type": "error",
            "name": "AddressEmptyCode",
            "inputs": [
                {
                    "name": "target",
                    "type": "address",
                    "internalType": "address"
                }
            ]
        },
        {
            "type": "error",
            "name": "ERC1967InvalidImplementation",
            "inputs": [
                {
                    "name": "implementation",
                    "type": "address",
                    "internalType": "address"
                }
            ]
        },
        {
            "type": "error",
            "name": "ERC1967NonPayable",
            "inputs": []
        },
        {
            "type": "error",
            "name": "ExpiryTooShort",
            "inputs": []
        },
        {
            "type": "error",
            "name": "FailedCall",
            "inputs": []
        },
        {
            "type": "error",
            "name": "FeesTooHigh",
            "inputs": []
        },
        {
            "type": "error",
            "name": "HookNotWhitelisted",
            "inputs": []
        },
        {
            "type": "error",
            "name": "InvalidInitialization",
            "inputs": []
        },
        {
            "type": "error",
            "name": "InvalidJob",
            "inputs": []
        },
        {
            "type": "error",
            "name": "NotInitializing",
            "inputs": []
        },
        {
            "type": "error",
            "name": "ProviderNotSet",
            "inputs": []
        },
        {
            "type": "error",
            "name": "ReentrancyGuardReentrantCall",
            "inputs": []
        },
        {
            "type": "error",
            "name": "SafeERC20FailedOperation",
            "inputs": [
                {
                    "name": "token",
                    "type": "address",
                    "internalType": "address"
                }
            ]
        },
        {
            "type": "error",
            "name": "UUPSUnauthorizedCallContext",
            "inputs": []
        },
        {
            "type": "error",
            "name": "UUPSUnsupportedProxiableUUID",
            "inputs": [
                {
                    "name": "slot",
                    "type": "bytes32",
                    "internalType": "bytes32"
                }
            ]
        },
        {
            "type": "error",
            "name": "Unauthorized",
            "inputs": []
        },
        {
            "type": "error",
            "name": "WrongStatus",
            "inputs": []
        },
        {
            "type": "error",
            "name": "ZeroAddress",
            "inputs": []
        },
        {
            "type": "error",
            "name": "ZeroBudget",
            "inputs": []
        }
    ],
    "bytecode": {
        "object": "0x60a060405230608052348015610013575f5ffd5b5061001c610021565b6100d3565b7ff0c57e16840df040f15088dc2f81fe391c3923bec73e23a9662efc9c229c6a00805468010000000000000000900460ff16156100715760405163f92ee8a960e01b815260040160405180910390fd5b80546001600160401b03908116146100d05780546001600160401b0319166001600160401b0390811782556040519081527fc7f505b2f371ae2175ee4913f4499e1f2633a7b5936321eed1cdaeb6115181d29060200160405180910390a15b50565b6080516135646100f95f395f81816127340152818161275d015261289e01526135645ff3fe608060405260043610610207575f3560e01c8063840850d111610113578063ce79eb601161009d578063dd4ae9d41161006d578063dd4ae9d414610655578063e138818c14610674578063e25ba70714610693578063fabc3329146106b2578063ff96092a146106e0575f5ffd5b8063ce79eb60146105d9578063d0fae591146105f8578063d547741f14610617578063d75bbdf314610636575f5ffd5b8063a217fddf116100e3578063a217fddf1461051f578063ad3cb1cc14610532578063b4d884f61461056f578063b821da1b1461058e578063bf22c457146105ad575f5ffd5b8063840850d11461047c57806384f15090146104c257806391d14854146104e15780639e63798d14610500575f5ffd5b8063415288121161019457806350355d761161016457806350355d76146103e657806352d1902d146103fb5780635b7baf641461040f5780636d3b96c31461042e57806375b238fc1461045c575f5ffd5b8063415288121461037657806341dd26f514610395578063485cc955146103b45780634f1ef286146103d3575f5ffd5b8063248a9ca3116101da578063248a9ca3146102c05780632f0e31f4146102ed5780632f2ff15d146103025780633013ce291461032157806336568abe14610357575f5ffd5b806301ffc9a71461020b578063020686641461023f578063131d9a2714610260578063180aedf31461028c575b5f5ffd5b348015610216575f5ffd5b5061022a610225366004612cec565b6106f5565b60405190151581526020015b60405180910390f35b34801561024a575f5ffd5b5061025e610259366004612d29565b61072b565b005b34801561026b575f5ffd5b5061027f61027a366004612d53565b6109e5565b6040516102369190612d6a565b348015610297575f5ffd5b506102ab6102a6366004612d53565b610a7b565b60405161023699989796959493929190612e32565b3480156102cb575f5ffd5b506102df6102da366004612d53565b610b67565b604051908152602001610236565b3480156102f8575f5ffd5b506102df60035481565b34801561030d575f5ffd5b5061025e61031c366004612d29565b610b87565b34801561032c575f5ffd5b505f5461033f906001600160a01b031681565b6040516001600160a01b039091168152602001610236565b348015610362575f5ffd5b5061025e610371366004612d29565b610ba9565b348015610381575f5ffd5b506102df610390366004612eec565b610be1565b3480156103a0575f5ffd5b5061025e6103af366004612f65565b610ef1565b3480156103bf575f5ffd5b5061025e6103ce366004612fb4565b61118d565b61025e6103e1366004612ff0565b611343565b3480156103f1575f5ffd5b506102df60055481565b348015610406575f5ffd5b506102df611362565b34801561041a575f5ffd5b5061025e610429366004612d53565b61137d565b348015610439575f5ffd5b5061022a6104483660046130b4565b60066020525f908152604090205460ff1681565b348015610467575f5ffd5b506102df5f51602061350f5f395f51905f5281565b348015610487575f5ffd5b5061049b6104963660046130cd565b6114f9565b604080516001600160a01b0390941684526020840192909252151590820152606001610236565b3480156104cd575f5ffd5b5061025e6104dc366004612d53565b611544565b3480156104ec575f5ffd5b5061022a6104fb366004612d29565b611591565b34801561050b575f5ffd5b5061025e61051a366004612f65565b6115c7565b34801561052a575f5ffd5b506102df5f81565b34801561053d575f5ffd5b50610562604051806040016040528060058152602001640352e302e360dc1b81525081565b60405161023691906130ed565b34801561057a575f5ffd5b5061025e610589366004612d29565b611777565b348015610599575f5ffd5b5061025e6105a83660046130cd565b61180d565b3480156105b8575f5ffd5b506105cc6105c7366004612d53565b611a84565b60405161023691906130ff565b3480156105e4575f5ffd5b5061025e6105f33660046131b3565b611c15565b348015610603575f5ffd5b5061025e610612366004612d29565b611cb2565b348015610622575f5ffd5b5061025e610631366004612d29565b611de7565b348015610641575f5ffd5b5061025e610650366004612f65565b611e03565b348015610660575f5ffd5b5061025e61066f366004612f65565b6120d4565b34801561067f575f5ffd5b5060025461033f906001600160a01b031681565b34801561069e575f5ffd5b5061025e6106ad3660046131ec565b612263565b3480156106bd575f5ffd5b5061022a6106cc366004612d53565b60076020525f908152604090205460ff1681565b3480156106eb575f5ffd5b506102df60015481565b5f6001600160e01b03198216637965db0b60e01b148061072557506301ffc9a760e01b6001600160e01b03198316145b92915050565b5f828152600460205260408120805490910361075a5760405163038e47a360e51b815260040160405180910390fd5b5f600782015460ff16600581111561077457610774612dfe565b1461079257604051638e78f0cb60e01b815260040160405180910390fd5b60028101546001600160a01b0316156107be57604051638e78f0cb60e01b815260040160405180910390fd5b60018101546001600160a01b031633146107ea576040516282b42960e81b815260040160405180910390fd5b5f838152600860205260408120549080805b838110156108da575f87815260086020526040902080546001600160a01b03881691908390811061082f5761082f613234565b5f9182526020909120600390910201546001600160a01b0316036108d2575f8781526008602052604090208054600191908390811061087057610870613234565b905f5260205f2090600302016002015f6101000a81548160ff02191690831515021790555060085f8881526020019081526020015f2081815481106108b7576108b7613234565b905f5260205f209060030201600101549150600192506108da565b6001016107fc565b50816108f95760405163038e47a360e51b815260040160405180910390fd5b6002840180546001600160a01b0319166001600160a01b038716908117909155600585018290555f87815260076020526040808220805460ff191660011790555188917f9a87df076ea1725aba8ba29d32517ce37c9597d88cbf16ec6707892cc330ab6991a3857f869e2577b006bf47ee981cf6fec2e25583548081c14b98deab587f77b50680388260405161099191815260200190565b60405180910390a2846001600160a01b0316867f91a721693afff25f233ac308edbd2fa15ad7d4dfacdd164dd4e8c57ab72f4ae9836040516109d591815260200190565b60405180910390a3505050505050565b606060085f8381526020019081526020015f20805480602002602001604051908101604052809291908181526020015f905b82821015610a70575f848152602090819020604080516060810182526003860290920180546001600160a01b031683526001808201548486015260029091015460ff161515918301919091529083529092019101610a17565b505050509050919050565b600460208190525f91825260409091208054600182015460028301546003840154948401805493956001600160a01b039384169592841694931692610abf90613248565b80601f0160208091040260200160405190810160405280929190818152602001828054610aeb90613248565b8015610b365780601f10610b0d57610100808354040283529160200191610b36565b820191905f5260205f20905b815481529060010190602001808311610b1957829003601f168201915b50505050600583015460068401546007909401549293909290915060ff81169061010090046001600160a01b031689565b5f9081525f5160206134ef5f395f51905f52602052604090206001015490565b610b9082610b67565b610b9981612460565b610ba3838361246a565b50505050565b6001600160a01b0381163314610bd25760405163334bd91960e11b815260040160405180910390fd5b610bdc8282612512565b505050565b5f610bea61258b565b6001600160a01b038616610c115760405163d92e233d60e01b815260040160405180910390fd5b610c1d4261012c613294565b8511610c3c57604051633de81d2360e21b815260040160405180910390fd5b6001600160a01b0382165f9081526006602052604090205460ff16610c7457604051632812ca3b60e21b815260040160405180910390fd5b6001600160a01b03821615610cb157610c9482633ffb5e4f60e11b6125c2565b610cb15760405163038e47a360e51b815260040160405180910390fd5b5f60055f8154610cc0906132a7565b9190508190559050604051806101200160405280828152602001336001600160a01b03168152602001896001600160a01b03168152602001886001600160a01b0316815260200186868080601f0160208091040260200160405190810160405280939291908181526020018383808284375f920182905250938552505050602080830182905260408084018b905260608085018490526001600160a01b0389811660809687015287855260048085529483902087518155938701516001850180546001600160a01b03199081169284169290921790559287015160028501805485169183169190911790559086015160038401805490931691161790559183015190820190610dcf9082613315565b5060a0820151816005015560c0820151816006015560e0820151816007015f6101000a81548160ff02191690836005811115610e0d57610e0d612dfe565b0217905550610100918201516007919091018054610100600160a81b0319166001600160a01b039283169093029290921790915560408051898316815260208101899052858316818301529051918a1691339184917fb0f0239bfdd96453e24733e18bfc24b70d8fadf123dd977473518dd577ee79b9916060908290030190a4604080513360208201526001600160a01b03808b16928201929092529088166060820152610edd90849083906001600160e01b03195f3516906080016040516020818303038152906040526125e4565b9050610ee7612656565b9695505050505050565b610ef961258b565b5f8481526004602052604081208054909103610f285760405163038e47a360e51b815260040160405180910390fd5b5f600782015460ff166005811115610f4257610f42612dfe565b03610f785760018101546001600160a01b03163314610f73576040516282b42960e81b815260040160405180910390fd5b611001565b6001600782015460ff166005811115610f9357610f93612dfe565b1480610fb757506002600782015460ff166005811115610fb557610fb5612dfe565b145b15610fe85760038101546001600160a01b03163314610f73576040516282b42960e81b815260040160405180910390fd5b604051638e78f0cb60e01b815260040160405180910390fd5b5f3385858560405160200161101994939291906133fc565b60405160208183030381529060405290506110588260070160019054906101000a90046001600160a01b0316875f356001600160e01b03191684612680565b60078201805460ff19811660041790915560ff16600181600581111561108057611080612dfe565b148061109d5750600281600581111561109b5761109b612dfe565b145b80156110ac57505f8360050154115b1561112157600183015460058401545f546110d5926001600160a01b03918216929116906126bf565b600183015460058401546040519081526001600160a01b039091169088907f7ca5472b7ea78c2c0141c5a12ee6d170cf4ce8ed06be3d22c8252ddfc7a6a2c49060200160405180910390a35b604051868152339088907fae7362b1af91f4492868987b9c73990d780060811551b58728fbe96fd1bab2759060200160405180910390a360078301546111829061010090046001600160a01b0316885f356001600160e01b031916856125e4565b505050610ba3612656565b5f6111966126f9565b805490915060ff600160401b820416159067ffffffffffffffff165f811580156111bd5750825b90505f8267ffffffffffffffff1660011480156111d95750303b155b9050811580156111e7575080155b156112055760405163f92ee8a960e01b815260040160405180910390fd5b845467ffffffffffffffff19166001178555831561122f57845460ff60401b1916600160401b1785555b6001600160a01b038716158061124c57506001600160a01b038616155b1561126a5760405163d92e233d60e01b815260040160405180910390fd5b611272612721565b5f80546001600160a01b03808a166001600160a01b031992831617835560028054918a16919092161790556112a7903361246a565b506112bf5f51602061350f5f395f51905f523361246a565b505f805260066020527f54cdd369e4e8a8515e52ca72ec816c2101831ad1f18bf44102ed171459c9b4f8805460ff19166001179055831561133a57845460ff60401b19168555604051600181527fc7f505b2f371ae2175ee4913f4499e1f2633a7b5936321eed1cdaeb6115181d29060200160405180910390a15b50505050505050565b61134b612729565b611354826127cd565b61135e82826127d7565b5050565b5f61136b612893565b505f5160206134cf5f395f51905f5290565b61138561258b565b5f81815260046020526040812080549091036113b45760405163038e47a360e51b815260040160405180910390fd5b6001600782015460ff1660058111156113cf576113cf612dfe565b141580156113f657506002600782015460ff1660058111156113f3576113f3612dfe565b14155b1561141457604051638e78f0cb60e01b815260040160405180910390fd5b806006015442101561143957604051638e78f0cb60e01b815260040160405180910390fd5b60078101805460ff19166005908117909155810154156114c357600181015460058201545f54611477926001600160a01b03918216929116906126bf565b600181015460058201546040519081526001600160a01b039091169083907f7ca5472b7ea78c2c0141c5a12ee6d170cf4ce8ed06be3d22c8252ddfc7a6a2c49060200160405180910390a35b60405182907f97237956f8810192811e2c3f273fd02c5d6295206fdd9c62e6fe2bfc19ba9232905f90a2506114f6612656565b50565b6008602052815f5260405f208181548110611512575f80fd5b5f9182526020909120600390910201805460018201546002909201546001600160a01b03909116935090915060ff1683565b5f51602061350f5f395f51905f5261155b81612460565b6127106001548361156c9190613294565b111561158b5760405163192069c360e31b815260040160405180910390fd5b50600355565b5f9182525f5160206134ef5f395f51905f52602090815260408084206001600160a01b0393909316845291905290205460ff1690565b6115cf61258b565b5f84815260046020526040812080549091036115fe5760405163038e47a360e51b815260040160405180910390fd5b6001600782015460ff16600581111561161957611619612dfe565b1415801561164c57505f600782015460ff16600581111561163c5761163c612dfe565b14158061164c57505f8160050154115b1561166a57604051638e78f0cb60e01b815260040160405180910390fd5b60028101546001600160a01b03163314611696576040516282b42960e81b815260040160405180910390fd5b5f338585856040516020016116ae94939291906133fc565b60405160208183030381529060405290506116ed8260070160019054906101000a90046001600160a01b0316875f356001600160e01b03191684612680565b60078201805460ff191660029081179091558201546040518681526001600160a01b039091169087907f80c17db79857f338a6a6df68a6883ecc0ce78e2202fe61ed979733573f40538e9060200160405180910390a3600782015461176d9061010090046001600160a01b0316875f356001600160e01b031916846125e4565b5050610ba3612656565b5f51602061350f5f395f51905f5261178e81612460565b6001600160a01b0382166117b55760405163d92e233d60e01b815260040160405180910390fd5b612710600354846117c69190613294565b11156117e55760405163192069c360e31b815260040160405180910390fd5b50600191909155600280546001600160a01b0319166001600160a01b03909216919091179055565b5f828152600460205260408120805490910361183c5760405163038e47a360e51b815260040160405180910390fd5b5f600782015460ff16600581111561185657611856612dfe565b1461187457604051638e78f0cb60e01b815260040160405180910390fd5b60028101546001600160a01b0316156118a057604051638e78f0cb60e01b815260040160405180910390fd5b60018101546001600160a01b031633036118cc576040516282b42960e81b815260040160405180910390fd5b815f036118ef5760405160016268479f60e01b0319815260040160405180910390fd5b5f83815260086020526040812054905b818110156119cf575f85815260086020526040902080543391908390811061192957611929613234565b5f9182526020909120600390910201546001600160a01b0316036119c7575f85815260086020526040902080548591908390811061196957611969613234565b905f5260205f20906003020160010181905550336001600160a01b0316857f177554f051f4aa1f0d0310334854b429baeecdb5a96bc329a26fd0cb7c8a7be3866040516119b891815260200190565b60405180910390a35050505050565b6001016118ff565b505f848152600860209081526040808320815160608101835233808252818501898152828501878152845460018082018755958952978790209351600390980290930180546001600160a01b0319166001600160a01b039098169790971787555192860192909255516002909401805460ff1916941515949094179093555185815286917f177554f051f4aa1f0d0310334854b429baeecdb5a96bc329a26fd0cb7c8a7be3910160405180910390a350505050565b60408051610120810182525f808252602082018190529181018290526060808201839052608082015260a0810182905260c0810182905260e081018290526101008101919091525f828152600460208181526040928390208351610120810185528154815260018201546001600160a01b03908116938201939093526002820154831694810194909452600381015490911660608401529081018054608084019190611b2f90613248565b80601f0160208091040260200160405190810160405280929190818152602001828054611b5b90613248565b8015611ba65780601f10611b7d57610100808354040283529160200191611ba6565b820191905f5260205f20905b815481529060010190602001808311611b8957829003601f168201915b5050509183525050600582810154602083015260068301546040830152600783015460609092019160ff1690811115611be157611be1612dfe565b6005811115611bf257611bf2612dfe565b81526007919091015461010090046001600160a01b031660209091015292915050565b5f51602061350f5f395f51905f52611c2c81612460565b6001600160a01b038316611c535760405163d92e233d60e01b815260040160405180910390fd5b6001600160a01b0383165f81815260066020908152604091829020805460ff191686151590811790915591519182527f7ee54953080e392a475a25b6acacb85417ca4e1953293c90934233ca13612510910160405180910390a2505050565b5f8281526004602052604081208054909103611ce15760405163038e47a360e51b815260040160405180910390fd5b5f600782015460ff166005811115611cfb57611cfb612dfe565b14611d1957604051638e78f0cb60e01b815260040160405180910390fd5b60018101546001600160a01b03163314611d45576040516282b42960e81b815260040160405180910390fd5b60028101546001600160a01b031615611d7157604051638e78f0cb60e01b815260040160405180910390fd5b6001600160a01b038216611d985760405163d92e233d60e01b815260040160405180910390fd5b6002810180546001600160a01b0319166001600160a01b03841690811790915560405184907f9a87df076ea1725aba8ba29d32517ce37c9597d88cbf16ec6707892cc330ab69905f90a3505050565b611df082610b67565b611df981612460565b610ba38383612512565b611e0b61258b565b5f8481526004602052604081208054909103611e3a5760405163038e47a360e51b815260040160405180910390fd5b6002600782015460ff166005811115611e5557611e55612dfe565b14611e7357604051638e78f0cb60e01b815260040160405180910390fd5b60038101546001600160a01b03163314611e9f576040516282b42960e81b815260040160405180910390fd5b5f33858585604051602001611eb794939291906133fc565b6040516020818303038152906040529050611ef68260070160019054906101000a90046001600160a01b0316875f356001600160e01b03191684612680565b60078201805460ff1916600317905560058201546001545f9061271090611f1d9084613423565b611f27919061343a565b90505f61271060035484611f3b9190613423565b611f45919061343a565b90505f81611f538486613459565b611f5d9190613459565b90508215611f81576002545f54611f81916001600160a01b039182169116856126bf565b8115611fec5760038601545f54611fa5916001600160a01b039182169116846126bf565b60038601546040518381526001600160a01b03909116908b907f253dd534010ac976fa263caa123bae79b9c50292adf7ce67bdc5ec309f784e619060200160405180910390a35b80156120105760028601545f54612010916001600160a01b039182169116836126bf565b60038601546040518a81526001600160a01b03909116908b907f0fd54bd364fa9e67f17b091aefe930932c09fe7651cf5ad02c71a418f33414449060200160405180910390a360028601546040518281526001600160a01b03909116908b907f21d71db5be59bb9fa133895586b7404307dd33fb93b16db09dc6f1d9d7d231b09060200160405180910390a360078601546120c69061010090046001600160a01b03168b5f356001600160e01b031916886125e4565b505050505050610ba3612656565b6120dc61258b565b5f848152600460205260408120805490910361210b5760405163038e47a360e51b815260040160405180910390fd5b5f600782015460ff16600581111561212557612125612dfe565b1461214357604051638e78f0cb60e01b815260040160405180910390fd5b60028101546001600160a01b0316331480159061216d575060018101546001600160a01b03163314155b1561218a576040516282b42960e81b815260040160405180910390fd5b5f338585856040516020016121a294939291906133fc565b60405160208183030381529060405290506121e18260070160019054906101000a90046001600160a01b0316875f356001600160e01b03191684612680565b6005820185905560405185815286907f869e2577b006bf47ee981cf6fec2e25583548081c14b98deab587f77b50680389060200160405180910390a25f86815260076020819052604082208054600160ff1990911617905583015461176d916101009091046001600160a01b0316908890356001600160e01b031916846125e4565b61226b61258b565b5f838152600460205260408120805490910361229a5760405163038e47a360e51b815260040160405180910390fd5b5f600782015460ff1660058111156122b4576122b4612dfe565b146122d257604051638e78f0cb60e01b815260040160405180910390fd5b60018101546001600160a01b031633146122fe576040516282b42960e81b815260040160405180910390fd5b60028101546001600160a01b03166123295760405163a9456d4360e01b815260040160405180910390fd5b8060060154421061234d57604051638e78f0cb60e01b815260040160405180910390fd5b5f3384846040516020016123639392919061346c565b60405160208183030381529060405290506123a28260070160019054906101000a90046001600160a01b0316865f356001600160e01b03191684612680565b60078201805460ff191660011790556005820154156123e157600182015460058301545f546123e1926001600160a01b039182169291169030906128dc565b600182015460058301546040519081526001600160a01b039091169086907fe3fbcc1ea1bdc559ec7f0347efde7655e58b5f45a30b0e4470a583c3ef5496b39060200160405180910390a360078201546124569061010090046001600160a01b0316865f356001600160e01b031916846125e4565b5050610bdc612656565b6114f68133612912565b5f5f5160206134ef5f395f51905f526124838484611591565b612502575f848152602082815260408083206001600160a01b03871684529091529020805460ff191660011790556124b83390565b6001600160a01b0316836001600160a01b0316857f2f8788117e7eff1d82e926ec794901d17c78024a50270940304540a733656f0d60405160405180910390a46001915050610725565b5f915050610725565b5092915050565b5f5f5160206134ef5f395f51905f5261252b8484611591565b15612502575f848152602082815260408083206001600160a01b0387168085529252808320805460ff1916905551339287917ff6391f5c32d9c69d2a47ea670b442974b53935d1edc7fd64eb21e047a839171b9190a46001915050610725565b61259361294b565b6125c060017f9b779b17422d0df92223018b32b4d1fa46e071723d6817e2486d003becc55f005b9061298b565b565b5f6125cc83612992565b80156125dd57506125dd83836129e0565b9392505050565b6001600160a01b03841615610ba35760405163a3fe478360e01b81526001600160a01b0385169063a3fe47839061262390869086908690600401613490565b5f604051808303815f87803b15801561263a575f5ffd5b505af115801561264c573d5f5f3e3d5ffd5b5050505050505050565b6125c05f7f9b779b17422d0df92223018b32b4d1fa46e071723d6817e2486d003becc55f006125ba565b6001600160a01b03841615610ba35760405163dc08fb1d60e01b81526001600160a01b0385169063dc08fb1d9061262390869086908690600401613490565b6126cc8383836001612a04565b610bdc57604051635274afe760e01b81526001600160a01b03841660048201526024015b60405180910390fd5b5f807ff0c57e16840df040f15088dc2f81fe391c3923bec73e23a9662efc9c229c6a00610725565b6125c0612a66565b306001600160a01b037f00000000000000000000000000000000000000000000000000000000000000001614806127af57507f00000000000000000000000000000000000000000000000000000000000000006001600160a01b03166127a35f5160206134cf5f395f51905f52546001600160a01b031690565b6001600160a01b031614155b156125c05760405163703e46dd60e11b815260040160405180910390fd5b5f61135e81612460565b816001600160a01b03166352d1902d6040518163ffffffff1660e01b8152600401602060405180830381865afa925050508015612831575060408051601f3d908101601f1916820190925261282e918101906134b7565b60015b61285957604051634c9c8ce360e01b81526001600160a01b03831660048201526024016126f0565b5f5160206134cf5f395f51905f52811461288957604051632a87526960e21b8152600481018290526024016126f0565b610bdc8383612a8b565b306001600160a01b037f000000000000000000000000000000000000000000000000000000000000000016146125c05760405163703e46dd60e11b815260040160405180910390fd5b6128ea848484846001612ae0565b610ba357604051635274afe760e01b81526001600160a01b03851660048201526024016126f0565b61291c8282611591565b61135e5760405163e2517d3f60e01b81526001600160a01b0382166004820152602481018390526044016126f0565b7f9b779b17422d0df92223018b32b4d1fa46e071723d6817e2486d003becc55f005c156125c057604051633ee5aeb560e01b815260040160405180910390fd5b80825d5050565b5f6129a4826301ffc9a760e01b6129e0565b156129d4575f806129bd846001600160e01b0319612b4d565b915091508180156129cc575080155b949350505050565b505f919050565b919050565b5f5f5f6129ed8585612b4d565b915091508180156129fb5750805b95945050505050565b60405163a9059cbb60e01b5f8181526001600160a01b038616600452602485905291602083604481808b5af1925060015f51148316612a5a578383151615612a4e573d5f823e3d81fd5b5f873b113d1516831692505b60405250949350505050565b612a6e612b81565b6125c057604051631afcd79f60e31b815260040160405180910390fd5b612a9482612b9a565b6040516001600160a01b038316907fbc7cd75a20ee27fd9adebab32041f755214dbc6bffa90cc0225b39da2e5c2d3b905f90a2805115612ad857610bdc8282612bfd565b61135e612c96565b6040516323b872dd60e01b5f8181526001600160a01b038781166004528616602452604485905291602083606481808c5af1925060015f51148316612b3c578383151615612b30573d5f823e3d81fd5b5f883b113d1516831692505b604052505f60605295945050505050565b6301ffc9a760e01b5f818152600483905290819060208260248188617530fa92505f511515601f3d11169150509250929050565b5f612b8a6126f9565b54600160401b900460ff16919050565b806001600160a01b03163b5f03612bcf57604051634c9c8ce360e01b81526001600160a01b03821660048201526024016126f0565b5f5160206134cf5f395f51905f5280546001600160a01b0319166001600160a01b0392909216919091179055565b60605f612c0a8484612cb5565b9050808015612c2b57505f3d1180612c2b57505f846001600160a01b03163b115b15612c4057612c38612cc8565b915050610725565b8015612c6a57604051639996b31560e01b81526001600160a01b03851660048201526024016126f0565b3d15612c7d57612c78612ce1565b61250b565b60405163d6bda27560e01b815260040160405180910390fd5b34156125c05760405163b398979f60e01b815260040160405180910390fd5b5f5f5f835160208501865af49392505050565b6040513d81523d5f602083013e3d602001810160405290565b6040513d5f823e3d81fd5b5f60208284031215612cfc575f5ffd5b81356001600160e01b0319811681146125dd575f5ffd5b80356001600160a01b03811681146129db575f5ffd5b5f5f60408385031215612d3a575f5ffd5b82359150612d4a60208401612d13565b90509250929050565b5f60208284031215612d63575f5ffd5b5035919050565b602080825282518282018190525f918401906040840190835b81811015612dc557835180516001600160a01b031684526020808201518186015260409182015115159185019190915290930192606090920191600101612d83565b509095945050505050565b5f81518084528060208401602086015e5f602082860101526020601f19601f83011685010191505092915050565b634e487b7160e01b5f52602160045260245ffd5b60068110612e2e57634e487b7160e01b5f52602160045260245ffd5b9052565b8981526001600160a01b038981166020830152888116604083015287166060820152610120608082018190525f90612e6c90830188612dd0565b90508560a08301528460c0830152612e8760e0830185612e12565b6001600160a01b0392909216610100919091015298975050505050505050565b5f5f83601f840112612eb7575f5ffd5b50813567ffffffffffffffff811115612ece575f5ffd5b602083019150836020828501011115612ee5575f5ffd5b9250929050565b5f5f5f5f5f5f60a08789031215612f01575f5ffd5b612f0a87612d13565b9550612f1860208801612d13565b945060408701359350606087013567ffffffffffffffff811115612f3a575f5ffd5b612f4689828a01612ea7565b9094509250612f59905060808801612d13565b90509295509295509295565b5f5f5f5f60608587031215612f78575f5ffd5b8435935060208501359250604085013567ffffffffffffffff811115612f9c575f5ffd5b612fa887828801612ea7565b95989497509550505050565b5f5f60408385031215612fc5575f5ffd5b612fce83612d13565b9150612d4a60208401612d13565b634e487b7160e01b5f52604160045260245ffd5b5f5f60408385031215613001575f5ffd5b61300a83612d13565b9150602083013567ffffffffffffffff811115613025575f5ffd5b8301601f81018513613035575f5ffd5b803567ffffffffffffffff81111561304f5761304f612fdc565b604051601f8201601f19908116603f0116810167ffffffffffffffff8111828210171561307e5761307e612fdc565b604052818152828201602001871015613095575f5ffd5b816020840160208301375f602083830101528093505050509250929050565b5f602082840312156130c4575f5ffd5b6125dd82612d13565b5f5f604083850312156130de575f5ffd5b50508035926020909101359150565b602081525f6125dd6020830184612dd0565b60208152815160208201525f602083015161312560408401826001600160a01b03169052565b5060408301516001600160a01b03811660608401525060608301516001600160a01b038116608084015250608083015161012060a084015261316b610140840182612dd0565b905060a084015160c084015260c084015160e084015260e0840151613194610100850182612e12565b506101008401516001600160a01b038116610120850152509392505050565b5f5f604083850312156131c4575f5ffd5b6131cd83612d13565b9150602083013580151581146131e1575f5ffd5b809150509250929050565b5f5f5f604084860312156131fe575f5ffd5b83359250602084013567ffffffffffffffff81111561321b575f5ffd5b61322786828701612ea7565b9497909650939450505050565b634e487b7160e01b5f52603260045260245ffd5b600181811c9082168061325c57607f821691505b60208210810361327a57634e487b7160e01b5f52602260045260245ffd5b50919050565b634e487b7160e01b5f52601160045260245ffd5b8082018082111561072557610725613280565b5f600182016132b8576132b8613280565b5060010190565b601f821115610bdc5782821115610bdc57805f5260205f20601f840160051c60208510156132ea57505f5b90810190601f840160051c035f5b8181101561330d575f838201556001016132f8565b505050505050565b815167ffffffffffffffff81111561332f5761332f612fdc565b6133438161333d8454613248565b846132bf565b6020601f821160018114613375575f831561335e5750848201515b5f19600385901b1c1916600184901b1784556133cd565b5f84815260208120601f198516915b828110156133a45787850151825560209485019460019092019101613384565b50848210156133c157868401515f19600387901b60f8161c191681555b505060018360011b0184555b5050505050565b81835281816020850137505f828201602090810191909152601f909101601f19169091010190565b60018060a01b0385168152836020820152606060408201525f610ee76060830184866133d4565b808202811582820484141761072557610725613280565b5f8261345457634e487b7160e01b5f52601260045260245ffd5b500490565b8181038181111561072557610725613280565b6001600160a01b03841681526040602082018190525f906129fb90830184866133d4565b83815263ffffffff60e01b83166020820152606060408201525f6129fb6060830184612dd0565b5f602082840312156134c7575f5ffd5b505191905056fe360894a13ba1a3210667c828492db98dca3e2076cc3735a920a3ca505d382bbc02dd7bc7dec4dceedda775e58dd541e08a116c6c53815c0bd028192f7b626800a49807205ce4d355092ef5a8a18f56e8913cf4a201fbe287825b095693c21775a264697066735822122070f9ad560acd54077b74083ec1e5ac1596d53b295d8b5c322d288e7865bf8ee664736f6c63430008230033",
        "linkReferences": {}
    },
    "methodIdentifiers": {
        "ADMIN_ROLE()": "75b238fc",
        "DEFAULT_ADMIN_ROLE()": "a217fddf",
        "UPGRADE_INTERFACE_VERSION()": "ad3cb1cc",
        "acceptBid(uint256,address)": "02068664",
        "claimRefund(uint256)": "5b7baf64",
        "complete(uint256,bytes32,bytes)": "d75bbdf3",
        "createJob(address,address,uint256,string,address)": "41528812",
        "evaluatorFeeBP()": "2f0e31f4",
        "fund(uint256,bytes)": "e25ba707",
        "getBids(uint256)": "131d9a27",
        "getJob(uint256)": "bf22c457",
        "getRoleAdmin(bytes32)": "248a9ca3",
        "grantRole(bytes32,address)": "2f2ff15d",
        "hasRole(bytes32,address)": "91d14854",
        "initialize(address,address)": "485cc955",
        "jobBids(uint256,uint256)": "840850d1",
        "jobCounter()": "50355d76",
        "jobHasBudget(uint256)": "fabc3329",
        "jobs(uint256)": "180aedf3",
        "paymentToken()": "3013ce29",
        "platformFeeBP()": "ff96092a",
        "platformTreasury()": "e138818c",
        "proxiableUUID()": "52d1902d",
        "reject(uint256,bytes32,bytes)": "41dd26f5",
        "renounceRole(bytes32,address)": "36568abe",
        "revokeRole(bytes32,address)": "d547741f",
        "setBudget(uint256,uint256,bytes)": "dd4ae9d4",
        "setEvaluatorFee(uint256)": "84f15090",
        "setHookWhitelist(address,bool)": "ce79eb60",
        "setPlatformFee(uint256,address)": "b4d884f6",
        "setProvider(uint256,address)": "d0fae591",
        "submit(uint256,bytes32,bytes)": "9e63798d",
        "submitBid(uint256,uint256)": "b821da1b",
        "supportsInterface(bytes4)": "01ffc9a7",
        "upgradeToAndCall(address,bytes)": "4f1ef286",
        "whitelistedHooks(address)": "6d3b96c3"
    },
    "id": 47
}